0109000220120120000017V.003                                                                                                                         
0000000269532600009851FLORES RAMIREZ MAX ANTONY                                   000002460863010000000481261FLORES                        1        
0000000436755400009880TARQUI VALERIANO JAVIER JIMMY                               000072530449010000004367554TARQUI                        1        
0000000235249500012339CALLISAYA DE MAMANI JUANA                                   000002817394010000002352495CALLISAYA                     2        
0000000432674300012745LOZA VILLA ALVARO ISIDORO                                   000073261610010004326743018LOZA                          1        
0000000432674300012746LOZA VILLA ALVARO ISIDORO                                   000073261610010004326743018LOZA                          1        
0000000432674300012747LOZA VILLA ALVARO ISIDORO                                   000073261610010004326743018LOZA                          1        
0000000234266000012872MENA HIDALGO FAVIO                                          000002794169010000002342660MENA                          1        
0000000633723600013744SALVATIERRA MONTENEGRO JULIO CESAR                          000070549585010000006337236SALVATIERRA                   1        
0000000633723600013745SALVATIERRA MONTENEGRO JULIO CESAR                          000070549585010000006337236SALVATIERRA                   1        
0000000432165500013747BAUTISTA ATAHUACHI EMILIANA                                 000077200171010000043216955BAUTISTA                      1        
0000000499950100013748BAUTISTA BAUTISTA MARCELA JULIA                             000079120023010000004999501BAUTISTA                      1        
0000000526200000013753MIRANDA CERRUTO HELEN DENISSE                               000002913299010000005262000MIRANDA                       1        
0000000526200000013754MIRANDA CERRUTO HELEN DENISSE                               000002913299010000005262000MIRANDA                       1        
0000000275626500013755MARCA BEDOYA ELIAS                                          000072479910010000002756265MARCA                         1        
0000000275626500013756MARCA BEDOYA ELIAS                                          000072479910010000002756265MARCA                         1        
0000000247661900013757GARFIAS CANAVIRI VICTORIA                                   000002211993010000002476619GARFIAS                       1        
0000000049127400013758ZUNA DE DE LA TORRE MARIA EUGENIA                           000002488323010000000491274ZUNA                          1        